:100000000C944D000C946C000C946C000C946C00DF
:100010000C946C000C946C000C946C000C946C00B0
:100020000C946C000C946C000C946C000C946C00A0
:100030000C946C000C9416010C946C000C946C00E5
:100040000C946C000C946C000C946C000C946C0080
:100050000C946C000C946C000C946C000C946C0070
:100060000C946C000C946C000C946C000C946C0060
:100070000C946C000C946C000C946C000C946C0050
:100080000C946C000C946C000C946C00870194012F
:10009000B001E901B701D001F00111241FBECFEF7B
:1000A000D0E4DEBFCDBF11E0A0E0B1E0EAEAF4E0C9
:1000B00000E00BBF02C007900D92A231B107D9F743
:1000C00021E0A2E1B1E001C01D92AC31B207E1F73D
:1000D0000E9430020C9453020C940000181619066A
:1000E00014F40000FECF08959BB19F7B9BB988B9A3
:1000F0008BB180688BB900008BB18F778BB982E0B0
:1001000090E00E946E00089581E00E9474000895BE
:10011000813120F481580E947400089581550E9415
:100120007400089584E690E00E946E0088E30E94C7
:10013000740086E00E9474008FE00E94740081E0E9
:100140000E9474008AE090E00E946E0008959BB1C6
:1001500090649BB988B98BB180688BB900008BB172
:100160008F778BB981E090E00E946E000895EF9246
:10017000FF920F931F93CF93DF93182FEB010E94F1
:1001800084000EC001E0010F812F0E9488007E01D3
:100190008FEFE81AF80A88810E94A700102FE70164
:1001A00088818111EFCFDF91CF911F910F91FF9047
:1001B000EF900895CF93C82F8A3019F48DE00E94F4
:1001C000DA008091C00085FFFCCFC093C60080E0BC
:1001D00090E0CF9108958BE0809381008DE790E0CF
:1001E000909389008093880082E080936F00109242
:1001F0008500109284008091000190910101A091EE
:100200000201B09103018093140190931501A09312
:100210001601B09317018FB780688FBF08951092B1
:100220008100089581E08093180108951F920F9234
:100230000FB60F9211240BB60F922F933F934F934B
:100240005F936F937F938F939F93AF93BF93EF933E
:10025000FF938091140190911501A0911601B09126
:1002600017010197A109B109809314019093150119
:10027000A0931601B0931701892B8A2B8B2B91F435
:100280000E9412018091000190910101A091020150
:10029000B09103018093140190931501A09316016E
:1002A000B0931701FF91EF91BF91AF919F918F9103
:1002B0007F916F915F914F913F912F910F900BBE66
:1002C0000F900FBE0F901F901895609300017093D0
:1002D00001018093020190930301609314017093D4
:1002E00015018093160190931701089580B18095B0
:1002F000837080931901E0911A01F0911B01E7309E
:10030000F10508F072C0EA5BFF4F0C944A0281E0ED
:100310000E94880080E30E94A70081E090E0909313
:100320001B0180931A0165C0813039F482E090E0AE
:1003300090931B0180931A015CC0823039F483E0F2
:1003400090E090931B0180931A0153C0833009F011
:1003500050C086E090E090931B0180931A0149C041
:1003600084E090E090931B0180931A0142C0813099
:1003700081F480911201893018F48F5F809312010B
:1003800081E00E94880080911201805D0E94A70098
:1003900030C081E090E090931B0180931A0129C046
:1003A000823081F480911201882319F0815080936A
:1003B000120181E00E94880080911201805D0E94FC
:1003C000A70017C081E090E090931B0180931A0171
:1003D00010C085E090E090931B0180931A0109C042
:1003E00010921B0110921A0104C010921B0110926E
:1003F0001A0180911A0190911B0183309105A9F097
:100400008630910511F1029751F5809112018930E2
:1004100018F48F5F8093120181E00E948800809120
:100420001201805D0E94A700089580911201882327
:1004300019F081508093120181E00E948800809120
:100440001201805D0E94A70008951092120181E0C0
:100450000E94880080911201805D0E94A70008958B
:1004600011B88FEF82B987B918B88AB91BB80E9442
:10047000920068EE73E080E090E00E9465010E94C7
:10048000EB000E947601809118018823E1F310921D
:100490001801F7CFEE0FFF1F0024001C0BBE0790C2
:0A04A000F691E02D0994F894FFCFC7
:1004AA00010000000000000200000000DA00000065
:0204BA00000040
:00000001FF
